:100000000C9481010C94A9010C94A9010C94C616BE
:100010000C94F7170C94D3170C94A9010C94A90114
:100020000C94A9010C94A9010C94A9010C94A901A8
:100030000C94A9010C94A9010C94A9010C94A90198
:100040000C947C160C94A9010C944A160C9424165A
:100050000C94A9010C94A9010C94A9010C94A90178
:100060000C94A9010C94A90100C201000100110027
:1000700011000C0000E100000A002500250021000D
:10008000009600001900390039003600127A00008D
:100090001F004600460044008070000022004D0012
:1000A0004D004A00004B00003600750075007200DC
:1000B000403800004A009C009C0099008025000008
:1000C0007200EC00EC00E900C0120000E900DA0167
:1000D000DA01D70160090000D701B603B603B30304
:1000E000B0040000B3036E076E076B072C0100001D
:1000F000DC0EC11DC11DBE1D41542B434F4C503D54
:100100003100415445300041542B434C49503D315E
:100110000041542B434D47463D310041542B494645
:10012000433D312C31002B43475245473A20302C78
:1001300035002B43475245473A20302C310041547B
:100140002B43475245473F0041542B4350494E3DB6
:1001500000504F57455220444F574E00434F4E4E8C
:100160004543540D0A0041542B51494F50454E3DD3
:100170000041542B5149444E5349503D0041542BAA
:100180005149434C4F534500434C4F534544004164
:10019000542B51494143540041542B514952454736
:1001A0004150500041542B51494E44493D3100418A
:1001B000542B51494D4F44453D310041542B514939
:1001C0004D55583D3000222C220041542B514943BB
:1001D0005347503D312C220041542B51494647434F
:1001E0004E543D30002B5044502044454143540070
:1001F00041542B43474154543D0041542B51494CE9
:100200004F4349500041542B434D474C3D225245EA
:100210004320554E52454144222C310041542B433A
:100220004D47443D0041542B514953455256455288
:100230000041542B51494C504F52543D225443508D
:10024000222C0041542B51494C4F43495000434FFD
:100250004E4E4543540D0A00434C4F5345440D0A3E
:10026000004154440041542B434C4343004154410A
:1002700000415448002B434C49503A0042555359D1
:10028000004E4F2043415252494552002B434F4CA0
:10029000503A0052494E4700000000002400270059
:1002A0002A0000000008000201000003040700000B
:1002B00000000000000041542B434D47533D2200F5
:1002C0004154000000000023002600290000000027
:1002D00000250028002B0004040404040404040284
:1002E00002020202020303030303030102040810D3
:1002F00020408001020408102001020408102000A0
:10030000511A11241FBECFEFD8E0DEBFCDBF25E0CC
:10031000A4E0B3E001C01D92AF30B207E1F713E0F3
:10032000A0E0B1E0E8ECFAE302C005900D92A43041
:10033000B107D9F711E0C1E8D1E004C02197FE016F
:100340000E945C1DC038D107C9F70E94DC1B0C94C9
:10035000621D0C9400008130910559F020914504F4
:10036000309146042230310521F410924B04109252
:100370004A048093430481E090E090934604809384
:10038000450410925304109252048093440408953B
:10039000DB01FC0124912D9301962111FACF0895E0
:1003A000DC01ED91FC910190F081E02D0994AF9278
:1003B000BF92CF92DF92EF92FF920F931F93CF9352
:1003C000DF936C017B018B01040F151FEB015E01B4
:1003D000AE18BF08C017D10759F06991D601ED9149
:1003E000FC910190F081E02DC6010995892B79F7E8
:1003F000C501DF91CF911F910F91FF90EF90DF909A
:10040000CF90BF90AF900895FC01538D448D252F60
:1004100030E0842F90E0821B930B541710F0CF969E
:10042000089501970895FC01918D828D981761F0D0
:10043000A28DAE0FBF2FB11D5D968C91928D9F5FE7
:100440009F73928F90E008958FEF9FEF0895FC01C6
:10045000918D828D981731F0828DE80FF11D858D79
:1004600090E008958FEF9FEF0895FC01918D228D0C
:10047000892F90E0805C9F4F821B91098F73992791
:1004800008958FE093E00E94350221E0892B09F462
:1004900020E0822F089580E090E0892B29F00E94CF
:1004A000410281110C9400000895FC01A48DA80F55
:1004B000B92FB11DA35ABF4F2C91848D90E00196A6
:1004C0008F739927848FA689B7892C93A089B189C6
:1004D0008C91837080648C93938D848D981306C067
:1004E0000288F389E02D80818F7D80830895EF92CB
:1004F000FF920F931F93CF93DF93EC0181E0888FDE
:100500009B8D8C8D98131AC0E889F989808185FFAD
:1005100015C09FB7F894EE89FF896083E889F9894F
:1005200080818370806480839FBF81E090E0DF9151
:10053000CF911F910F91FF90EF900895F62E0B8DA4
:1005400010E00F5F1F4F0F731127E02E8C8D8E115F
:100550000CC00FB607FCFACFE889F989808185FFC6
:10056000F5CFCE010E945502F1CFEB8DEC0FFD2FA0
:10057000F11DE35AFF4FF0829FB7F8940B8FEA8981
:10058000FB8980818062CFCFCF93DF93EC01888D90
:100590008823B9F0AA89BB89E889F9898C9185FDFE
:1005A00003C0808186FD0DC00FB607FCF7CF8C918C
:1005B00085FFF2CF808185FFEDCFCE010E945502ED
:1005C000E9CFDF91CF91089590E0FC01EE55FD4F0A
:1005D0002491FC01E551FD4F3491FC01E952FD4F9E
:1005E000E491EE23C9F0222339F0233001F1A8F47D
:1005F000213019F1223029F1F0E0EE0FFF1FE35313
:10060000FD4FA591B4918FB7F894EC91611126C07C
:1006100030953E233C938FBF08952730A9F02830B2
:10062000C9F0243049F7809180008F7D03C080910C
:1006300080008F7780938000DFCF84B58F7784BD73
:10064000DBCF84B58F7DFBCF8091B0008F77809317
:10065000B000D2CF8091B0008F7DF9CF3E2BDACFA2
:10066000CF93DF9390E0FC01E551FD4F2491895237
:100670009D4FFC0184918823D1F090E0880F991F51
:10068000FC01E856FD4FA591B491FC01E353FD4FE9
:10069000C591D49161110EC09FB7F8948C91E22F4F
:1006A000E0958E238C932881E223E8839FBFDF911E
:1006B000CF9108958FB7F894EC91E22BEC938FBF14
:1006C000F6CF3FB7F89480910B0390910C03A09163
:1006D0000D03B0910E0326B5A89B05C02F3F19F05E
:1006E0000196A11DB11D3FBFBA2FA92F982F8827B2
:1006F000BC01CD01620F711D811D911D42E0660F8D
:10070000771F881F991F4A95D1F708958F929F925E
:10071000AF92BF92CF92DF92EF92FF924B015C01BA
:100720000E9461036B017C010E9461036C197D09C9
:100730008E099F09683E734081059105A8F321E069
:10074000821A9108A108B10888EEC80E83E0D81E6D
:10075000E11CF11C81149104A104B10429F7FF905C
:10076000EF90DF90CF90BF90AF909F908F900895C3
:100770002FB7F894609107037091080380910903E3
:1007800090910A032FBF0895CF92DF92EF92FF92CC
:100790000F931F930E94B8038B019C01E9E3F4E0DF
:1007A000438D548D658D768D68017C01C41AD50A00
:1007B000E60AF70AC701B601038F148F258F368F1B
:1007C0001F910F91FF90EF90DF90CF900895DC0183
:1007D0001696ED91FC911797908115968C918095C6
:1007E000892380830895DC01ED91FC910280F381DF
:1007F000E02D61E1099480916C0490916B04891B58
:100800008F7741F080916C0480936B0488E594E0CD
:100810000C94F30381E08093430421E030E03093B3
:10082000460420934504109253041092520480937E
:100830004404089520E001972FEF8F3F9207D9F7E6
:100840000895CF93DF93FC0120893189232B51F147
:10085000EC010190F081E02D0280F381E02D613107
:1008600061F467E70995E881F9810280F381E02D61
:100870006EEECE01DF91CF910994633149F467E7C1
:100880000995E881F9810280F381E02D6CEEF1CFCA
:10089000673781F70995E881F9810280F381E02DBE
:1008A00068E8E7CF90E080E0DF91CF910895E9E339
:1008B000F4E081E0828721E030E035872487128EE2
:1008C000118E8387089520914C0430914D04232B81
:1008D000B9F020914E0430914F04232BA1F02091C8
:1008E000500430915104232B51F422E030E0220FC8
:1008F000331FF901E75CFB4F0296948B838B0895BD
:1009000030E020E0F4CF21E030E0F1CFFC0177834C
:1009100066830895CF93DF93EC01E881F981068423
:10092000F785E02D09958E819F81DF91CF91089504
:1009300090E080E0089581E020914A0430914B04DA
:100940002530310509F080E0089581E020914A04C6
:1009500030914B042530310509F080E0089590E096
:1009600080E00895CF92DF92EF92FF920F931F9352
:10097000CF93DF93EC01F62EE42E8C010D5E1F4F1A
:100980006C0189E1C80ED11CD8018D919D918D011A
:10099000009769F1DC01ED91FC910280F381E02D7B
:1009A0006F2D09950C151D05B9F4811117C0898D9E
:1009B0009A8D009799F0DC01ED91FC910190F08106
:1009C000E02D4E2D6F2DDF91CF911F910F91FF9054
:1009D000EF90DF90CF9009948823B1F2DF91CF910F
:1009E0001F910F91FF90EF90DF90CF90089580E0DE
:1009F000D9CFFC012685222319F06787408B089503
:100A00000C94B204089590E080E00895E9E3F4E0E6
:100A10000396928F818F128681E0838783E190E035
:100A2000958784871786108A0C94FB0390916C0439
:100A300080916B04891780F480916C0490916B0411
:100A4000891B81F0E0916B04F0E0E75CFB4F86A925
:100A5000082E000C990B089580916C0490916B0402
:100A60008058EECF80E0F4CFCF9380916B049091CB
:100A70006C048150891B8F7729F190916B048091D0
:100A80006C04C0E0981761F0E0916B04F0E0E75C63
:100A9000FB4FC6A980916B048F5F8F7780936B04A7
:100AA00090916B0480916C049150981B9F779436C1
:100AB00021F488E594E00E94F3038C2FCC0F990B6E
:100AC000CF91089590E080E0FBCF80914A0490910F
:100AD0004B04059721F084E090E00E94AB018091E7
:100AE0006C0490916B04891B8F7799F081E080935F
:100AF000430421E030E030934604209345041092F3
:100B0000530410925204809344048091430490E073
:100B1000089584E090E00E94AB01F7CF08958091A2
:100B20004A0490914B04059721F48BE394E00C94D4
:100B3000D00108950895CF92DF92EF92FF92DB01EA
:100B40001296CD90DD90ED90FC901597FC01C1863A
:100B5000D286E386F4861092400410923F040190FE
:100B6000F081E02D0484F585E02D70E060E0FF90D9
:100B7000EF90DF90CF90099461E087E00E9430030E
:100B800061E087E00E94E40264E873E080E090E0C6
:100B90000E94860360E087E00E94E40286E090E025
:100BA00090934B0480934A0410920503109204031F
:100BB00081E008950895CF92DF92EF92FF920F9314
:100BC0001F93CF93DF937C016A018B01D0E0C0E0DB
:100BD000CC15DD0579F0D701ED91FC910284F38508
:100BE000E02DC7010995882329F0F80181938F0131
:100BF0002196EECFCE01DF91CF911F910F91FF9003
:100C0000EF90DF90CF900895DC01ED91FC91068884
:100C1000F789E02D099591E0813009F090E0892F66
:100C20000895DC011C966C916F3F59F080911C0473
:100C300090911D04DC01ED91FC910680F781E02D7F
:100C4000099480E00895CF92DF92EF92FF920E9484
:100C5000B8036B017C010E94B803A0911C04B09101
:100C60001D046C197D098E099F0960317742810549
:100C7000910588F4ED91FC9111970480F581E02DA8
:100C8000CD010995892B39F464E670E080E090E0AD
:100C90000E948603E0CF80911C0490911D04DC012A
:100CA000ED91FC910480F581E02D099521E030E083
:100CB000019711F030E020E0C901FF90EF90DF9044
:100CC000CF900895CF93DF93EC018D8592E0892733
:100CD0008D8780911C0490911D04DC01ED91FC91A5
:100CE0000688F789E02D0995CE01DF91CF910C940C
:100CF0002306DC011D962C9121FD0E946206809145
:100D00001C0490911D04DC01ED91FC91068CF78D83
:100D1000E02D0994DC011D962C9121FD0E946206B4
:100D200080911C0490911D04DC01ED91FC91028CDA
:100D3000F38DE02D0994CF93DF93EC016D85862F21
:100D400082608D8780911C0490911D044C8550E039
:100D50006170DC01ED91FC910088F189E02D09952D
:100D6000CE01DF91CF910C942306EF92FF920F9367
:100D70001F93CF93DF937B018A01DC011D962C9199
:100D800021FF0E949B06E701E00EF11ECE15DF0554
:100D900069F080911C0490911D046991DC01ED9132
:100DA000FC910288F389E02D0995F0CFC801DF910D
:100DB000CF911F910F91FF90EF900895CF93C62F81
:100DC000DC011D962C9121FF0E949B0680911C0442
:100DD00090911D04DC01ED91FC910288F389E02DD6
:100DE0006C2F099581E090E0CF910895CF93DF9328
:100DF000EC018D8581FF03C0CE010E9462068091C7
:100E00001C0490911D044C8550E06D856170DC01DF
:100E1000ED91FC9100A0F1A1E02D099580911C04B9
:100E200090911D046C8570E0DC01ED91FC910284D1
:100E3000F385E02D09951C868D8582FF05C0CE01C6
:100E4000DF91CF910C942306DF91CF910895CF933A
:100E5000DF93EC018D8581FF03C0CE010E94620605
:100E600080911C0490911D04DC01ED91FC91048C97
:100E7000F58DE02D09958D8582FF05C0CE01DF91AE
:100E8000CF910C942306DF91CF910895CF93DF93F8
:100E9000EC018D8581FF03C0CE010E946206809126
:100EA0001C0490911D044C8550E06D856170DC013F
:100EB000ED91FC91008CF18DE02D09952D8522FF9F
:100EC00005C0CE01DF91CF910C942306DF91CF9125
:100ED0000895EF92FF920F931F93CF93DF93A0910A
:100EE0001C04B0911D04109749F17A018B01EC01AB
:100EF000ED91FC9111970084F185E02D6FEF7FEF6C
:100F0000CD0109959C018C8780911C0490911D0452
:100F10003327DC01ED91FC910484F585E02DA701D8
:100F2000B80109952D8522FF0BC0CE01DF91CF912D
:100F30001F910F91FF90EF900C94230682E090E0B8
:100F4000DF91CF911F910F91FF90EF900895CF9275
:100F5000DF92EF92FF920F931F93CF93DF9300D016
:100F600000D000D0CDB7DEB7A0911C04B0911D0415
:100F7000109709F446C07A016B018C01ED91FC9148
:100F800011970084F185E02D6FEF7FEFCD0109957A
:100F90009C01D8011C968C9380911C0490911D0497
:100FA000DC01ED91FC910684F785E02D4CE152E0E7
:100FB0005A834983D60112964D915D916D917C9132
:100FC00015974B835C836D837E833327A701BE0116
:100FD0006F5F7F4F0995F801258522FF03C0C80187
:100FE0000E94230626960FB6F894DEBF0FBECDBF33
:100FF000DF91CF911F910F91FF90EF90DF90CF90F5
:10100000089582E090E0EECFDF92EF92FF920F938F
:101010001F93CF93DF93EC01FB018081882351F173
:1010200030E0F0E0E0E0421709F440C0942FDE0128
:10103000A90FB11D14968C91DB01AE0FBF1FAC91AF
:101040000A2E000CBB0B8A171B06E9F4311101C0F4
:10105000D92E3196DB01AE0FBF1F8C9181111BC0C1
:101060000115110511F0F801D082E114F10411F01D
:10107000F701908381E0DF91CF911F910F91FF9055
:10108000EF90DF90089551E0332339F050E030E0E5
:10109000F0E0E0E002C051E031E09F5F9F77552330
:1010A00011F02913C4CF4F5F4F77BDCF80E0E3CF5E
:1010B0008F929F92AF92BF92CF92DF92EF92FF9268
:1010C0000F931F93CF93DF9300D0CDB7DEB76C01A2
:1010D0004A015901FC0121814081CE0102967C0127
:1010E00010E000E0C6010E940408811110C080E0F9
:1010F0000F900F90DF91CF911F910F91FF90EF9084
:10110000DF90CF90BF90AF909F908F9008954A81CD
:101110004F5F4A83F6012181F12CE12C8E010F5F94
:101120001F4FB401C6010E940408882301F39A816D
:1011300029812F77F501A92FB0E0921741F0AC0D6E
:10114000BD1D14963C9131939F5F9F77F4CF108221
:10115000CFCF9B0146E352E060E372E08BE694E080
:101160000E94580881E090E00895AF92BF92CF921C
:10117000DF92EF92FF920F931F93CF93DF9300D0F4
:10118000CDB7DEB76C01B42EA22EFC0121814081C7
:10119000CE0102967C018E010F5F1F4FC6010E9497
:1011A0000408882379F0AA20D1F0BB2039F08A8185
:1011B0008F5F8F77F60180838B2D04C08981F601C4
:1011C00080838A2D0F900F90DF91CF911F910F9107
:1011D000FF90EF90DF90CF90BF90AF900895BB202D
:1011E00031F08A818F5F8F77F6018183E5CF998116
:1011F000F6019183E7CFFC012681211109C021E08E
:10120000268341E066E472E08BE694E00E94B50834
:1012100090916C0480916B04891780F480916C0428
:1012200090916B04891B81F0E0916B04F0E0E75C26
:10123000FB4F86A9082E000C990B089580916C0431
:1012400090916B048058EECF80E0F4CFEF92FF9244
:101250000F931F93FC0121814081F12CE12C10E0C0
:1012600000E00E9404081F910F91FF90EF900895F5
:101270000F931F93CF93DF938C01EA0161157105E2
:1012800021F4209711F462E472E08BE694E00E946E
:101290002609F8018083811109C0209739F0BE0129
:1012A0008BE694E00E942609F801808381E0DF91BB
:1012B000CF911F910F910895CF92DF92EF92FF92FD
:1012C000CF93DF93CDB7DEB763970FB6F894DEBF49
:1012D0000FBECDBF61E087E00E94300361E087E090
:1012E0000E94E4026CED75E080E090E00E948603CD
:1012F00060E087E00E94E40281E090E090934B047C
:1013000080934A0410920503109204030E94B803CC
:101310006B017C01BE016F5F7F4F81E591E00E9410
:10132000C8010E94B8036C197D098E099F096838AD
:10133000734181059105F8F461E070E080E090E090
:101340000E94860350E040E0BE016F5F7F4FCE01F8
:1013500043960E943809882321F38B8963960FB640
:10136000F894DEBF0FBECDBFDF91CF91FF90EF901D
:10137000DF90CF90089580E0F1CF0F931F93CF932C
:10138000DF93EC018E8181110AC081E08E8321E020
:1013900041E066E472E08BE694E00E94B50890912B
:1013A0006B0480916C0400E0981761F0E0916B048D
:1013B000F0E0E75CFB4F06A980916B048F5F8F77AD
:1013C00080936B048985882341F0198668E372E075
:1013D0008BE694E00E94260988878885811139C0B0
:1013E0008F816EE372E08823B1F180916B0490915C
:1013F0006C048150891B8F77002E000C110B8F37E6
:1014000011F580916C0480936B041F8281E08987C1
:101410002296D0935304C0935204109243048093B5
:10142000440410924604109245041092480410920D
:10143000490488E594E00E94F3036AE070E080E0EC
:1014400090E00E948603C801DF91CF911F910F9118
:10145000089568E372E08BE694E00E942609002E6E
:10146000000C110B8111EFCF80916C0480936B0401
:101470002296D0935304C09352041092430481E007
:10148000809344041092460410924504109248043C
:101490001092490488E594E00E94F3036AE070E04A
:1014A00080E090E00E94860310E000E0CCCF80E076
:1014B0000895DF92EF92FF920F931F93CF93DF93E4
:1014C000EC01D62EEFB6F8940E94E703888999893B
:1014D00005960E941A0408E010E0FF24F3948D2D75
:1014E0008F2119F1EE81FF8180819D81892B80837D
:1014F000888999890E941A04FF0C0150110979F713
:10150000EE81FF8180819D81892B8083EFBE888958
:1015100099890E941A0481E090E0DF91CF911F9198
:101520000F91FF90EF90DF900895CE010E94E703A6
:10153000DFCFFB0101900020E9F73197AF01461B97
:10154000570BDC01ED91FC910280F381E02D0994B1
:101550008F929F92AF92BF92EF92FF920F931F9341
:10156000CF93DF93CDB7DEB7A1970FB6F894DEBF68
:101570000FBECDBF7C01FA01CB0119A2223008F4C5
:101580002AE08E010F5D1F4F822E912CB12CA12CD1
:10159000BF01A50194010E943A1DF901CA016A30F8
:1015A0000CF5605DD8016E938D01232B242B252B28
:1015B00079F790E080E0109721F0BD01C7010E940B
:1015C000990AA1960FB6F894DEBF0FBECDBFDF918A
:1015D000CF911F910F91FF90EF90BF90AF909F9090
:1015E0008F900895695CDECFCF92DF92EF92FF92E9
:1015F0000F931F93CF93DF936B01770FEE08FF08D4
:10160000F7FE1BC0EC016DE20E94D0018C01442763
:101610005527BA014C195D096E097F092AE0CE01F0
:101620000E94A80A800F911FDF91CF911F910F9107
:10163000FF90EF90DF90CF9008952AE0B701A601C8
:10164000DF91CF911F910F91FF90EF90DF90CF909E
:101650000C94A80A8F929F92AF92BF92CF92DF9282
:10166000EF92FF920F931F93CF93DF937C018B0137
:101670006C0182E0C80ED11C4701E5E08E0E911C82
:10168000D0E0C0E0F60141916F0150E070E060E011
:101690002AE0C8010E94A80A5C016EE2C8010E940B
:1016A000D0018A0D9B1DC80FD91FC814D90451F74A
:1016B000F701458150E070E060E02AE0C8010E9437
:1016C000A80A8C0F9D1FDF91CF911F910F91FF9062
:1016D000EF90DF90CF90BF90AF909F908F90089544
:1016E000CF9390EE980F682F9F3580F0C82F65E25A
:1016F0008FE093E00E94D0014C2F50E070E060E05A
:101700002AE08FE093E00E94A80A65E28FE093E070
:10171000CF910C94D00189E394E00C94751965E4A1
:1017200072E00C94990A0F931F93CF93DF93EC010F
:101730000E94990A8C01CE010E948F0B800F911F8D
:10174000DF91CF911F910F9108956115710511F0EF
:101750000C94990A90E080E00895CF93DF938091F4
:101760004704882309F448C09091480480914904B3
:10177000981709F441C0C0916B04D0916C048FE0BC
:1017800093E00E948F0B4C2F50E070E060E02AE065
:101790008FE093E00E94A80A6FEC72E08FE093E084
:1017A0000E94A50B4D2F50E070E060E02AE08FE032
:1017B00093E00E94A80A6EE38FE093E00E94D001BC
:1017C000DC1751F0EC2FF0E0E75CFB4F86A90E949C
:1017D000700BCF5FCF77F4CF8FE093E00E948F0B39
:1017E000409149046091480489E394E00E94B20466
:1017F0001092480410924904DF91CF9108950E94FD
:10180000AD0B8091430490E008950E94AD0B809150
:10181000430490E008950E94AD0B8091430490E052
:1018200008950E94AD0B8091430490E008950E94BA
:10183000AD0B8091430490E00895CF93DF931F9206
:10184000CDB7DEB780914404813031F0823099F019
:101850000F90DF91CF91089582E0809344046AE174
:1018600089E394E00E94751969E472E08BE394E0E7
:101870000E94A50BEDCF50E040E070E060E0CE01AB
:1018800001960E943809882319F38981882319F069
:101890000E945704DDCF83E090E00E94AB01D8CFD7
:1018A000CF93DF93EC0102969093530480935204FC
:1018B0001092430481E08093440485E090E090938B
:1018C00046048093450410924804109249040E94F3
:1018D0001D0CE881F9810088F189E02DCE01099580
:1018E000892B39F464E670E080E090E00E94860382
:1018F000F0CF8091430490E0DF91CF910895EF9273
:10190000FF920F931F93CF93DF938C01E42EEB0193
:10191000FE01F490FF2049F0D801ED91FC91028086
:10192000F381E02D6F2DC80109952196F110F0CFBC
:10193000EE2031F069E472E0C80102960E94A50B26
:1019400081E090E0DF91CF911F910F91FF90EF9098
:101950000895462FE9E3F4E023A922ABBC01CF01AF
:101960000C947F0CCF93DF931F92CDB7DEB780919D
:101970004404813031F0823069F00F90DF91CF91D3
:10198000089561E080EC92E00E94A90C82E08093CF
:101990004404F3CF50E040E070E060E0CE010196F7
:1019A0000E943809882349F38981882319F00E940D
:1019B0005704E3CF83E090E00E94AB01DECFCF93EA
:1019C000DF93C9E3D4E01A8621E02B8702969A8F31
:1019D000898F83E090E09D878C871F86188A0E94FC
:1019E000B20C8A8590E0DF91CF910895CF93DF9379
:1019F0001F92CDB7DEB780914404813031F0823040
:101A0000D9F00F90DF91CF91089582E08093440444
:101A100060E086EB92E00E94A90C60913F04709117
:101A200040048BE394E00E94A50B68E472E08BE332
:101A300094E00E94A50BE5CF50E040E06BE472E03B
:101A4000CE0101960E9438098823D9F28981882322
:101A500019F00E945704D5CF83E090E00E94AB01BB
:101A6000D0CF20914A0430914B04235031092230C9
:101A70003105F0F47093400460933F040296909314
:101A80005304809352041092430481E080934404F1
:101A900084E090E0909346048093450410924804BB
:101AA000109249040E94F60C8091430490E008953E
:101AB00082E090E008950F931F93CF93DF931F92DE
:101AC000CDB7DEB78C0180914404813041F0823083
:101AD00079F00F90DF91CF911F910F91089561E000
:101AE00081E792E00E94A90C82E080934404F1CF48
:101AF00050E040E070E060E0CE0101960E943809BD
:101B0000882339F3D801ED91FC910484F585E02D0B
:101B100070E060E0C80109958981882319F00E946E
:101B20005704D7CF83E090E00E94AB01D2CFCF9390
:101B3000DF93C9E3D4E01A8621E02B879C012E5F56
:101B40003F4F3A8F298F2AE030E03D872C871F8650
:101B5000188A0E945B0D8A8590E0DF91CF910895ED
:101B60000F931F93CF93DF931F92CDB7DEB78C01F6
:101B700080914404813041F0823079F00F90DF9100
:101B8000CF911F910F91089561E08DE692E00E9440
:101B9000A90C82E080934404F1CF50E040E070E073
:101BA00060E0CE0101960E943809882339F3D801FC
:101BB000ED91FC910484F585E02D63E070E0C801AF
:101BC00009958981882319F00E945704D7CF83E0B3
:101BD00090E00E94AB01D2CFCF93DF93C9E3D4E072
:101BE0001A8621E02B879C012E5F3F4F3A8F298F69
:101BF00029E030E03D872C871F86188A0E94B00DAF
:101C00008A8590E0DF91CF910895809144048130DE
:101C100019F0823051F0089561E085E692E00E946B
:101C2000A90C82E080934404089520913F043091F0
:101C3000400446E352E06DE472E08BE694E00E94DB
:101C4000580880916C0480936B0481E08093430476
:101C500021E030E030934604209345041092530471
:101C600010925204DFCFCF93DF93C9E3D4E07F8398
:101C70006E83FC01558344831A8621E02B879C01E7
:101C80002E5F3F4F3A8F298F2BE030E03D872C8726
:101C90001F86188A0E94050E8A8590E0DF91CF91F9
:101CA00008950F931F93CF93DF93EC018B0160E0B6
:101CB00081E692E00E94A90CB8018BE394E00E94B7
:101CC000A50B60E672E08BE394E00E94A50BE8812F
:101CD000F9810484F585E02D61E070E0CE0109957D
:101CE00081E090E0DF91CF911F910F9108950F93C4
:101CF0001F93CF93DF9300D000D0CDB7DEB78C0118
:101D000080914404823009F456C060F4813009F4B3
:101D100049C00F900F900F900F90DF91CF911F91BE
:101D20000F910895833009F473C0843091F750E027
:101D300040E070E060E0CE0104960E9438098823FC
:101D400041F38C81882309F45EC080914C0490910A
:101D50004D04892B09F471C080914E0490914F0479
:101D6000892B09F46DC08091500490915104892B06
:101D700059F482E090E0880F991FFC01E75CFB4F6B
:101D80000E5F1F4F148B038B81E08093430421E08F
:101D900030E030934604209345041092530410928F
:101DA000520406C061E083E492E00E94A90C82E044
:101DB00080934404AECF8DE089838AE08A831B82BE
:101DC00050E040E0BE016F5F7F4FCE0104960E945D
:101DD0003809882309F49DCF8C818823A1F060E025
:101DE00081E392E00E94A90C609141047091420449
:101DF0008BE394E00E94F40A6DE08BE394E00E9490
:101E0000D00183E0D5CF83E090E00E94AB0181CF89
:101E100050E040E070E060E0CE0104960E94380996
:101E2000882309F476CF8C81882369F361E085E209
:101E300092E00E94A90C84E0BBCF90E080E09BCFB1
:101E400081E090E098CFCF93DF93C9E3D4E0798726
:101E500068879C012E5F3F4F3A8F298F1A8621E0B9
:101E60002B8724E130E03D872C871F86188A0E944B
:101E7000770E8A8590E0DF91CF9108950F931F939D
:101E8000CF93DF931F92CDB7DEB78C0180914404CE
:101E9000813041F08230E1F00F90DF91CF911F91BE
:101EA0000F91089582E08093440460E08CE192E019
:101EB0000E94A90CF801648175818BE394E00E9473
:101EC000F40A69E472E08BE394E00E94A50BE4CF8E
:101ED00050E040E070E060E0CE0101960E943809D9
:101EE0008823D1F28981882319F00E945704D4CF26
:101EF00083E090E00E94AB01CFCF0F931F93CF936D
:101F0000DF938C01C5E0D0E080916C0480936B047A
:101F100088E594E00E94F3036AE070E080E090E0DE
:101F20000E948603219781F7C8010296909353047B
:101F3000809352041092430481E08093440487E02C
:101F400090E09093460480934504109248041092C8
:101F50004904C801DF91CF911F910F910C943E0F5E
:101F60001F93CF93DF93EC0180914404813031F0D3
:101F7000823069F0DF91CF911F91089561E085E093
:101F800092E00E94A90C82E080934404F3CF8091F8
:101F90006B0490916C048150891B8F7791E08530A0
:101FA00008F090E09F8321E041E063E672E08BE679
:101FB00094E00E94B508182F80916B048F5F50E069
:101FC00040E030E020E06AE090916C04981711F155
:101FD000E82FF0E0E75CFB4F96A9903229F441111D
:101FE00007C08F5F8F77F0CF9D3211F4442381F0CB
:101FF00040ED490F4A3070F4629FF001639FF00D8D
:1020000011249F01290F311D2053310941E0E9CFEF
:1020100051E0FCCF552319F03195219531093D83CD
:102020002C8368E372E08BE694E00E94260988879F
:102030001986111107C084E090E0DF91CF911F91C4
:102040000C94AB0181E08093430421E030E03093B5
:10205000460420934504109253041092520494CFE6
:10206000CF93DF93FC011682C9E3D4E09C012E5F7D
:102070003F4F3A8F298F1A8621E02B8726E030E0E8
:102080003D872C871F86188A0E94B00F8A8590E0B2
:10209000DF91CF910895CF93DF93CDB7DEB72D9722
:1020A0000FB6F894DEBF0FBECDBF809144048230DE
:1020B00001F18330C1F1813099F460E080EF91E06B
:1020C0000E94A90C70E060E08BE394E00E94F40AA7
:1020D0006DE08BE394E00E94D00182E080934404A1
:1020E0002D960FB6F894DEBF0FBECDBFDF91CF9116
:1020F0000895BE016F5F7F4F85EE91E00E94C80199
:10210000BE016F5F7F4F8BE694E00E942609882313
:1021100039F38D85882311F083E0E0CF83E090E0F0
:102120000E94AB01DDCF50E040E070E060E0CE0106
:102130000D960E9438098823C1F08D858823F1F01F
:1021400083E090E090934B0480934A0481E0809375
:10215000430421E030E0309346042093450410927C
:102160005304109252048093440480916C04809331
:102170006B0488E594E00E94F303B2CF83E090E023
:102180000E94AB01F2CF9C012E5F3F4F309353046E
:10219000209352041092430421E0209344042DE044
:1021A00030E0309346042093450410924804109286
:1021B000490422E030E030934B0420934A040E940B
:1021C0004B100E94AD0B80914304811107C061E068
:1021D00070E080E090E00E948603F3CF80914A0493
:1021E00090914B0408950F931F93CF93DF931F9209
:1021F000CDB7DEB78C018091440490E08130910529
:10220000A1F460E080EF91E00E94A90C61E070E031
:102210008BE394E00E94F40A6DE08BE394E00E946B
:10222000D00182E0809344041BC082309105F1F418
:1022300050E040E070E060E0CE0101960E94380975
:10224000882371F08981882339F061E088ED91E07D
:102250000E94A90C83E0E6CF83E090E00E94AB01EE
:102260000F90DF91CF911F910F91089583309105C9
:10227000D1F550E040E070E060E0CE0101960E94B0
:102280003809882369F38981882331F360E08AEC77
:1022900091E00E94A90C60913F04709140048BE38F
:1022A00094E00E94A50B60E086EC91E00E94A90CEE
:1022B000F801648175818BE394E00E94A50B60E0D6
:1022C00086EC91E00E94A90CF801668177818BE38E
:1022D00094E00E94A50B68E472E08BE394E00E9416
:1022E000A50B84E09FCF84309105B1F450E040E02D
:1022F00070E060E0CE0101960E943809882309F45D
:10230000AFCF8981882309F4A7CF61E08BEB91E0FF
:102310000E94A90C85E086CF85309105B1F450E08C
:1023200040E070E060E0CE0101960E943809882309
:1023300009F496CF8981882309F48ECF61E08FEA72
:1023400091E00E94A90C86E06DCF86309105B1F432
:1023500050E040E070E060E0CE0101960E94380954
:10236000882309F47DCF8981882309F475CF61E042
:1023700084EA91E00E94A90C88E054CF883091054E
:10238000B1F450E040E070E060E0CE0101960E94C0
:102390003809882309F464CF8981882309F45CCF44
:1023A00061E088E991E00E94A90C89E03BCF893087
:1023B0009105B1F450E040E070E060E0CE0101969C
:1023C0000E943809882309F44BCF8981882309F4B6
:1023D00043CF61E08FE891E00E94A90C8AE022CF10
:1023E0000A9709F03DCF50E040E070E060E0CE0198
:1023F00001960E943809882309F432CF8981882305
:1024000009F42ACF84E090E090934B0480934A042F
:1024100081E08093430421E030E030934604209330
:1024200045041092530410925204FCCEFC015583D3
:102430004483378326837093400460933F049C0158
:102440002E5F3F4F30935304209352041092430465
:1024500021E0209344042CE030E0309346042093A4
:102460004504109248041092490422E030E0309371
:102470004B0420934A040E94F3100E94AD0B8091FC
:102480004304811107C064E670E080E090E00E94A0
:102490008603F3CF80914A0490914B040895809174
:1024A0004A0490914B04059721F48BE394E00C943B
:1024B000A50B0895EF92FF921F93CF93DF93EC014A
:1024C0002396D0935304C09352041092430481E0A6
:1024D000809344048FE090E09093460480934504F9
:1024E000109248041092490468EE73E080E090E096
:1024F0000E9486036AE672E08BE394E00E94A50BDB
:1025000068EE73E080E090E00E94860361E08DE772
:1025100091E00E94A90C84E090E090934B0480939A
:102520004A0411E0EE24E394F12C80916C04809332
:102530006B0488E594E00E94F30364E670E080E0B9
:1025400090E00E94860310934304F0924604E092C8
:102550004504109253041092520410934404809145
:102560006C0490916B04891B8F77F9F680914C0471
:1025700090914D04C817D907F9F080914E049091BD
:102580004F04C817D907D9F0809150049091510495
:10259000C817D90749F482E090E0880F991FFC0121
:1025A000E75CFB4F148A138A81E090E0DF91CF91C2
:1025B0001F91FF90EF90089590E080E0EECF81E0D2
:1025C00090E0EBCF0F931F93CF93DF93CDB7DEB7A0
:1025D0002D970FB6F894DEBF0FBECDBF8C01809152
:1025E0004404823009F465C070F4813009F443C0BA
:1025F0002D960FB6F894DEBF0FBECDBFDF91CF9101
:102600001F910F910895833009F49CC0843081F7A5
:10261000BE016F5F7F4F8CE591E00E94C80150E0E2
:1026200040E0BE016F5F7F4FCE010D960E943809DA
:102630008823F1F28D85882309F47FC085E090E03E
:1026400090934B0480934A0421E041E0BE016F5F08
:102650007F4F8BE694E00E94B50881E080934304AD
:1026600021E030E030934604209345041092530457
:10267000109252041BC060E081E791E00E94A90C17
:10268000E0913F04F0914004309729F0808180531D
:1026900061E38A3008F460E38BE394E00E94D001A8
:1026A0006DE08BE394E00E94D00182E080934404CB
:1026B0009FCF50E040E070E060E0CE010D960E94B8
:1026C0003809882309F494CF8D858823B1F160E01F
:1026D00086E691E00E94A90C6EE672E08BE394E03E
:1026E0000E94A50B60913F04709140046115710533
:1026F000E9F08BE394E00E94A50B62E28BE394E0A7
:102700000E94D0016CE28BE394E00E94D0016091C2
:102710004104709142048BE394E00E94F40A6DE05E
:102720008BE394E00E94D00183E0C0CF6BE374E0C0
:10273000C80107960E942A0BE0CF83E090E00E9438
:10274000AB0156CF50E040E070E060E0CE010D9666
:102750000E943809882309F44BCF8D85882369F3BB
:1027600084E0A4CF5093420440934104FC01368797
:1027700025877093400460933F04AC014D5F5F4F29
:1027800050935304409352041092430421E0209349
:1027900044042EE030E03093460420934504109228
:1027A00048041092490420914C0430914D04232B8D
:1027B000D9F020914E0430914F04232BC1F0209189
:1027C000500430915104232B49F422E030E0220FD1
:1027D000331FF901E75CFB4F548B438B0E94E212DD
:1027E0008091430490E0089530E020E0F0CF21E0B4
:1027F00030E0EDCF0F931F93CF93DF93CDB7DEB7CC
:1028000069970FB6F894DEBF0FBECDBF8091440428
:1028100090E08130910549F482E08093440461E0C6
:1028200080EC92E00E94A90C35C08230910509F03D
:1028300045C050E040E070E060E0CE0149960E9463
:102840003809882339F1898D882309F489C0E091FA
:102850003F04F0914004309741F18081882329F1B1
:1028600060E088E491E00E94A90C83E08093440436
:1028700060913F047091400480916C0480936B04DC
:102880008BE394E00E94A50B69E472E08BE394E093
:102890000E94A50B69960FB6F894DEBF0FBECDBFA0
:1028A000DF91CF911F910F91089584E080934404AC
:1028B0000E94C40361E08EE391E0B4CF83309105C0
:1028C00001F550E040E070E060E0CE0149960E94E2
:1028D00038098823F9F2898D882309F441C084E0FE
:1028E000809344040E94C40310E000E088EE93E06B
:1028F0000E941A040F5F1F4F003D27E01207B1F737
:10290000D9CF84309105F1F5BE01635F7F4F82E33B
:1029100091E00E94C801BE016F5F7F4F86E291E0A7
:102920000E94C801AE014F5F5F4FBE01635F7F4FE2
:10293000CE0149960E943809882309F4ABCF898DCE
:10294000882339F085E08093440461E08BE191E0D5
:1029500069CF0E94C403693873418105910528F04D
:1029600083E090E00E94AB0195CF10E000E088EE9C
:1029700093E00E941A040F5F1F4F003D87E0180785
:10298000B1F798CF85309105F1F450E040E070E068
:1029900060E0CE0149960E943809882309F47ACF75
:1029A00010E000E088EE93E00E941A040F5F1F4FD2
:1029B000003D27E01207B1F786E08093440461E010
:1029C00081E191E02FCF8630910591F450E040E015
:1029D00070E060E0CE0149960E943809882309F42E
:1029E00059CF87E08093440461E087E091E01ACFFB
:1029F0008730910591F450E040E070E060E0CE0156
:102A000049960E943809882309F444CF88E08093CE
:102A1000440461E082E091E005CF8830910591F4B3
:102A200050E040E070E060E0CE0149960E94380935
:102A3000882309F42FCF89E08093440461E088EF74
:102A400090E0F0CE099709F025CF50E040E070E02B
:102A500060E0CE0149960E943809882309F41ACF14
:102A6000898D882309F47CCF83E090E090934B0418
:102A700080934A0481E08093430421E030E0309366
:102A800046042093450410925304109252048093FC
:102A9000440400CFEF92FF920F931F93CF93DF93E5
:102AA000EC018B01E42EF22E61E087E00E943003FE
:102AB00081E090E090934B0480934A0461E087E0CA
:102AC000EE2009F49FC00E94E40260EE7EE280E006
:102AD00090E00E94860360E087E00E94E40268EED6
:102AE00073E080E090E00E948603109269041092E7
:102AF00068041092670410926604109265041092A4
:102B0000640490E080E0FC01E859FF4F4591559145
:102B100065917491403855426105710509F07FC097
:102B2000FC01E459FF4F25913491309363042093C5
:102B30006204FC01E259FF4F259134913093650402
:102B400020936404FC01E059FF4F259134913093A8
:102B5000670420936604FC01EE58FF4F8591949121
:102B6000909369048093680480916604909167044F
:102B7000892B81F080916800846080936800809147
:102B80006D00846080936D00809168049091690469
:102B90000E941A0488E594E090930503809304034F
:102BA0001093400400933F04CE0102969093530487
:102BB000809352041092430481E08093440482E0A5
:102BC00090E090934604809345041092480410923C
:102BD000490490934B0480934A04CE010E94FA1357
:102BE000FF2039F1E881F9810084F185E02DCE01E3
:102BF0000995892BF1F468EE73E080E090E00E9483
:102C00008603F0CF0E94E40260ED77E080E090E080
:102C10000E94860360E087E00E94E40266CF0C9683
:102C20008039910509F06FCF10926304109262040D
:102C30009BCF80914A0490914B04DF91CF911F91DB
:102C40000F91FF90EF9008951F920F920FB60F9281
:102C500011242F933F934F935F936F937F938F93A1
:102C60009F93AF93BF93EF93FF938FE093E00E9406
:102C70005502FF91EF91BF91AF919F918F917F91FD
:102C80006F915F914F913F912F910F900FBE0F90D9
:102C90001F9018951F920F920FB60F9211242F9329
:102CA0008F939F93EF93FF93E0911F03F091200385
:102CB0008081E0912503F091260382FD1BC0908165
:102CC000809128038F5F8F7320912903821741F031
:102CD000E0912803F0E0E15FFC4F958F809328039B
:102CE000FF91EF919F918F912F910F900FBE0F90B9
:102CF0001F9018958081F4CF1F920F920FB60F92FC
:102D000011242F933F938F939F93AF93BF93809101
:102D1000070390910803A0910903B0910A03309131
:102D2000060323E0230F2D3758F50196A11DB11D91
:102D3000209306038093070390930803A09309034D
:102D4000B0930A0380910B0390910C03A0910D03A3
:102D5000B0910E030196A11DB11D80930B039093BA
:102D60000C03A0930D03B0930E03BF91AF919F91FD
:102D70008F913F912F910F900FBE0F901F9018953C
:102D800026E8230F0296A11DB11DD2CF1F920F92EC
:102D90000FB60F9211248F929F92AF92BF92CF9253
:102DA000DF92EF92FF920F931F932F933F934F93D6
:102DB0005F936F937F938F939F93AF93BF93CF93C3
:102DC000DF93EF93FF93C0910403D0910503209705
:102DD00009F4C7C02F933F934F935F936F937F93F3
:102DE000AF93BF93EB81FC8110818A81182309F096
:102DF000B0C0F12CBB24B394AA24A39422E0922E59
:102E00008C898A859B850E941A040B898C890150C4
:102E1000081B0F77063028F4F11003C0CE010E9482
:102E2000E70398E0C92ED12C882483948C859D8556
:102E30000E941A04EB81FC8180819A81892309F424
:102E400054C01829063060F4F1100AC0882D83712F
:102E500009F44FC0EE81FF8180819D81892B8083A1
:102E6000880C81E0C81AD10809F7063008F096C02E
:102E7000F1100AC08C859D850E941A04EE81FF81A5
:102E800080819D81892B80838A8982608A8BFF243F
:102E9000F3948A891F3F89F581FF33C089258A8B86
:102EA00082E3C82ED12C81E090E00E941A04EB81CD
:102EB000FC8180819A81892309F4A2CFA1E0CA1AFA
:102EC000D10889F7063018F01A3009F03FC088851C
:102ED00099850097F1F14C89DC01ED91FC9101900D
:102EE000F081E02D6E2D099534C0882D8095182332
:102EF000A9CFCE010E94E703B3CF173711F4816049
:102F0000CECF80FF0BC01E3E31F01C3EE9F01838DA
:102F100019F417E701C011E18A258A8B8C898F5F2C
:102F20008F779B89891751F0EC89EC0FFD2FF11DEC
:102F3000178BFE01E80FF11D178A8C8BBB2009F45B
:102F4000AFCFEC88B12CACCF13E1E6CF103209F44F
:102F5000BECFBF91AF917F916F915F914F913F91A4
:102F60002F91FF91EF91DF91CF91BF91AF919F9101
:102F70008F917F916F915F914F913F912F911F9111
:102F80000F91FF90EF90DF90CF90BF90AF909F9008
:102F90008F900F900FBE0F901F9018958E859F8574
:102FA0000E941A0476CF1F920F920FB60F9211242F
:102FB0002F933F934F935F936F937F938F939F9341
:102FC000AF93BF93EF93FF930E94C616FF91EF91CB
:102FD000BF91AF919F918F917F916F915F914F9131
:102FE0003F912F910F900FBE0F901F9018951F9239
:102FF0000F920FB60F9211242F933F934F935F932D
:103000006F937F938F939F93AF93BF93EF93FF93B0
:103010000E94C616FF91EF91BF91AF919F918F9142
:103020007F916F915F914F913F912F910F900FBEC4
:103030000F901F901895EF92FF921F93CF93DF93FD
:10304000CDB7DEB72C970FB6F894DEBF0FBECDBF5D
:103050007C01BE016F5F7F4F88E891E00E94C8014C
:1030600011E080914A0490914B04059709F010E01B
:1030700020E040E0BE016F5F7F4F8BE694E00E944E
:10308000B508812301F193E0E90EF11C44E050E022
:1030900050934B0440934A0440914C0450914D048A
:1030A000E416F506E1F040914E0450914F04E41609
:1030B000F506F9F0409150045091510422E030E0BF
:1030C000E416F50671F02C960FB6F894DEBF0FBE2D
:1030D000CDBFDF91CF911F91FF90EF90089530E029
:1030E00020E0220F331FF901E75CFB4F148A138A9B
:1030F000EACF21E030E0F5CF03970C941B18EF9254
:10310000FF921F93CF93DF93CDB7DEB72F970FB604
:10311000F894DEBF0FBECDBF7C01BE016F5F7F4F55
:1031200083E992E00E94C801BE016F5F7F4F8BE68A
:1031300094E00E942609182F8823D9F0D701ED9139
:10314000FC910484F585E02D62E070E0C7010995EB
:1031500080916C0480936B04812F2F960FB6F894A6
:10316000DEBF0FBECDBFDF91CF911F91FF90EF90DB
:103170000895BE016F5F7F4F8CE892E00E94C80106
:10318000BE016F5F7F4F8BE694E00E942609182FE7
:10319000882349F0D701ED91FC910484F585E02D59
:1031A00063E070E0D3CFBE016F5F7F4F81E892E0B4
:1031B0000E94C801BE016F5F7F4F8BE694E00E94C2
:1031C0002609182F882349F0D701ED91FC9104843A
:1031D000F585E02D70E060E0B9CFBE016F5F7F4FF5
:1031E0008CE792E00E94C801BE016F5F7F4F8BE6C3
:1031F00094E00E942609182F8111E6CFBE016F5F6F
:103200007F4F85E792E00E94C801BE016F5F7F4F4C
:103210008BE694E00E942609182F882309F49CCF9E
:1032200080916C0480936B04D701ED91FC91048430
:10323000F585E02D62E070E0C70109958DCF02971A
:103240000C947F181F93CF93DF93CDB7DEB72F97E2
:103250000FB6F894DEBF0FBECDBFBE016F5F7F4FCC
:1032600088E592E00E94C801BE016F5F7F4F8BE648
:1032700094E00E942609882331F084E090E0909346
:103280004B0480934A04BE016F5F7F4F8EE492E04F
:103290000E94C801BE016F5F7F4F8BE694E00E94E1
:1032A0002609182F882399F021E041E0BE016F5FC5
:1032B0007F4F8BE694E00E94B50888E594E00E9479
:1032C000F30385E090E090934B0480934A04812FB0
:1032D0002F960FB6F894DEBF0FBECDBFDF91CF9112
:1032E0001F91089502970C9422191F93CF93DF9397
:1032F000EC01162F8E85882319F0862F0E94700B03
:10330000612FCE014F96DF91CF911F910C94210434
:1033100002970C94751920914504309146042A3087
:10332000310541F02B30310539F02930310531F4C8
:103330000C94B00D0C945B0D0C94050E089502973F
:103340000C948B19209145043091460421303105AD
:1033500021F02431310521F0089560936C04089523
:103360000C94770E02970C94A21920914504309189
:10337000460425303105A1F038F42130310559F0EB
:103380002430310559F008952630310559F02730A1
:10339000310551F0089560936C0408950C94F60C77
:1033A0000C941D0C0C94B00F0C943E0F02970C94CF
:1033B000B51920914504309146042D30310541F076
:1033C0002531310539F02C303105E9F50C94F31035
:1033D0000C944B1080914404813019F0823051F0EC
:1033E000089561E08AEF91E00E94A90C82E0809349
:1033F0004404089520913F043091400445E452E094
:10340000BA018BE694E00E94580881110CC083E059
:1034100090E00E94AB0180916C0480936B0488E57E
:1034200094E00C94F30381E08093430421E030E0C6
:103430003093460420934504109253041092520492
:1034400080934404E8CF089502970C94D9192091F1
:103450004504309146042E30310549F023313105C1
:1034600041F02130310539F460936C0408950C94D7
:10347000E2120C94FB03089503970C94271A2091F1
:103480004504309146042230310521F023303105C6
:1034900019F008950C94FA130C94B20C02970C9442
:1034A0003F1ACF92DF92EF92FF920F931F93CF9329
:1034B000DF93EFE0F3E01382128288EEC82E83E000
:1034C000D82EE12CF12CC482D582E682F78284E2E8
:1034D00091E09183808385EC90E09587848784ECEC
:1034E00090E09787868780EC90E0918B808B81ECD1
:1034F00090E0938B828B82EC90E0958B848B86ECB2
:1035000090E0978B868B118E128E138E148EE4EBC7
:10351000F3E00CE112E01183008312821382148223
:103520001582ECEAF3E086E391E0918380838EE4F8
:1035300091E09383828315821482EAEBF3E0118396
:1035400000831282138214821582E0ECF3E011836F
:1035500000831282138214821582E6ECF3E0118359
:1035600000831282138214821582ECECF3E0118343
:1035700000831282138214821582C9E3D4E01D8273
:103580001C8280E691E0998388838AE691E09B83A0
:103590008A8386E591E098A38F8F1AA619A61CA6A8
:1035A0001BA61EA61DA618AA1FA61AAA1BAA88E556
:1035B00094E09DAB8CAB61E083E00E94300361E05E
:1035C00083E00E94E402EEEEF2E0E491ECA3EAED87
:1035D000F2E0E491F0E0EE0FFF1FE353FD4F859121
:1035E00094919EA38DA360E082E00E94300361E08D
:1035F00082E00E94E402EDEEF2E0E491E9A3E9ED5D
:10360000F2E0E491F0E0EE0FFF1FED53FD4F8591E6
:1036100094919BA38AA3D8A7CFA31F86188A81E081
:103620008A871B8681E090E09D878C870E94C40377
:103630001C8A1B8A1E8A1D8A188E1F8AE2EDF3E0FF
:10364000118300831282138214821582E8EDF3E065
:10365000118300831282138214821582EEEDF3E04F
:10366000118300831282138214821582E4EEF3E048
:10367000118300831282138214821582EAEEF3E032
:10368000118300831282138214821582EAEFF3E021
:10369000118300831282138214821582E0EFF3E01B
:1036A00086E791E0918380838EE891E09383828323
:1036B000E4E0F4E011830083128213821482158205
:1036C000E0E0F4E086E991E0918380838CEA91E088
:1036D00093838283EAE0F4E01183008312821382F1
:1036E00014821582E0E1F4E01183008312821382D8
:1036F00014821582E6E1F4E01183008312821382C2
:1037000014821582EDE2F4E01183008312821382A9
:1037100014821582EEE1F4E084EB91E091838083E2
:103720008EED91E094838383108707831186128640
:1037300013861486F0931D04E0931C04E3E3F4E085
:10374000118300831282138214821582E9E0F5E06E
:10375000118300831282138214821582EBEFF4E04E
:1037600013821282C482D582E682F7828EEF91E0C4
:103770009183808385E085878FEF8487E3EFF4E092
:1037800082E292E0918380838CE292E09383828351
:10379000EFEEF4E086EE91E09183808386EF91E096
:1037A000938382831E86DF91CF911F910F91FF90AB
:1037B000EF90DF90CF900895789484B5826084BDB7
:1037C00084B5816084BD85B5826085BD85B5816025
:1037D00085BD80916E00816080936E0010928100A3
:1037E000809181008260809381008091810081605E
:1037F000809381008091800081608093800080911F
:10380000B10084608093B1008091B00081608093AA
:10381000B00080917A00846080937A0080917A0071
:10382000826080937A0080917A00816080937A0030
:1038300080917A00806880937A001092C100E091B4
:103840001F03F091200382E08083E0911B03F0913D
:103850001C031082E0911D03F0911E038FEC808306
:1038600010922703E0912303F091240386E08083E4
:10387000E0912103F0912203808180618083E091B7
:103880002103F0912203808188608083E0912103ED
:10389000F0912203808180688083E0912103F09180
:1038A000220380818F7D808366E772E08FE093E062
:1038B0000E94930B03E912E085EFE82E84E0F82ED6
:1038C0009CE0C92ED12C22E0A22EB12C21E041E0B7
:1038D00067E472E08FEE94E00E944A15C1E003971E
:1038E00009F0C0E087E492E09093F8048093F70435
:1038F0009093FA048093F9041093400400933F04DA
:10390000F0925304E09252041092430481E08093B9
:103910004404D0924604C092450410924804109288
:103920004904B0924B04A0924A0483EF94E00E94B1
:10393000F3100E94AD0B80914304811107C064E62F
:1039400070E080E090E00E948603F3CF80914A040B
:1039500090914B04049709F06EC0CC2309F46BC01E
:103960006FE972E08FE093E00E94930B40E550E036
:1039700060E171E08BEF94E00E946907892B09F404
:1039800067C061EB72E08FE093E00E94930B6BEBFA
:1039900072E08BEF94E00E94A50B60E071E08BEF8A
:1039A00094E00E94A50B60EC72E08BEF94E00E9423
:1039B000930B6AEC72E08BEF94E00E94A50B60E140
:1039C00071E08BEF94E00E94930B61ED72E08BEF5E
:1039D00094E00E94930B8BEF94E00E948F0BC0E069
:1039E000D0E08BEF94E00E944607892B49F08BEFE3
:1039F00094E00E948A06682F8FE093E00E94D00135
:103A00008BEF94E00E944607892B49F58BEF94E0F9
:103A10000E941106811123C08FE093E00E948F0B5A
:103A200065EF72E08FE093E00E94930B8BEF94E0E0
:103A30000E94F606FFCF6DEA72E08FE093E00E94ED
:103A4000930B68EE73E080E090E00E9486033ECF27
:103A500063EE72E08FE093E00E94930BC0CF20975B
:103A600009F4BFCF0E944102882309F4BACF0E9413
:103A70000000B7CFA1E21A2EAA1BBB1BFD010DC08F
:103A8000AA1FBB1FEE1FFF1FA217B307E407F5070E
:103A900020F0A21BB30BE40BF50B661F771F881FEA
:103AA000991F1A9469F760957095809590959B0180
:103AB000AC01BD01CF010895EE0FFF1F0590F491F9
:083AC000E02D0994F894FFCFFA
:103AC8002F75706C6F6164646174612E706870002A
:103AD8007365727665722E64656D6F2E636F6D0007
:103AE800000000007702D7010402C4023502130265
:103AF8002702000000006304510EEC0D970D330EF1
:103B08008A048604050C8B197F18FEFF00009F1994
:103B18001F1900000000F303590A210400000000E7
:103B2800F90475197F0CFEFF00008819D701AF044E
:103B3800DA0500000000310D8B0B500C3010FB082B
:103B48007D0FA908BD090B0CB519FEFF0000D61999
:103B5800570A00000000A504AF04AF04110C230F9E
:103B680098049B04A2192219FEFF0000B2197219C9
:103B780000000000AF04AF04170C9B040305020506
:103B8800B2139B059A058F054F128E0565053405FE
:103B9800060516055A121B18271AFDFF00003C1AC5
:103BA8007C18000000004A15DF0C5C09BC05FF0BFF
:103BB8003F1AFEFF00004E1A570A00000000DE06FA
:103BC800B506AF04270746078A067906A7076907D7
:103BD800DB05F60611060406000000002A0B0000AB
:103BE80000001612C310D919FEFF0000241A570A44
:103BF80052454144222C22000D0A0D0A2B000D0AC1
:103C08000D0A4F4B000D0A00220D003E002B434CBD
:103C180043433A20312C312C342C302C302C2200C8
:103C28003B0D002B434D474C3A002B2B2B002254C5
:103C38004350222C22005374617274696E672041CC
:103C4800726475696E6F2077656220636C69656E52
:103C5800742E006F72616E6765776F726C640063B3
:103C68006F6E6E656374696E672E2E2E004E6F74CC
:103C780020636F6E6E656374656400474554200069
:103C880020485454502F312E3100486F73743A2015
:103C980000436F6E6E656374696F6E3A20636C6F74
:103CA800736500636F6E6E656374696F6E2066611D
:103CB800696C656400646973636F6E6E65637469CB
:043CC8006E672E00F5
:00000001FF
